{
    "contractName": "Validators",
    "abi": [
        {
            "constant": true,
            "inputs": [],
            "name": "validatorCount",
            "outputs": [
                {
                    "name": "",
                    "type": "uint256"
                }
            ],
            "payable": false,
            "stateMutability": "view",
            "type": "function"
        },
        {
            "constant": true,
            "inputs": [
                {
                    "name": "",
                    "type": "uint256"
                }
            ],
            "name": "validators",
            "outputs": [
                {
                    "name": "",
                    "type": "address"
                }
            ],
            "payable": false,
            "stateMutability": "view",
            "type": "function"
        },
        {
            "inputs": [],
            "payable": false,
            "stateMutability": "nonpayable",
            "type": "constructor"
        },
        {
            "anonymous": false,
            "inputs": [
                {
                    "indexed": true,
                    "name": "_parentHash",
                    "type": "bytes32"
                },
                {
                    "indexed": false,
                    "name": "_newSet",
                    "type": "address[]"
                }
            ],
            "name": "InitiateChange",
            "type": "event"
        },
        {
            "anonymous": false,
            "inputs": [
                {
                    "indexed": true,
                    "name": "reporter",
                    "type": "address"
                },
                {
                    "indexed": true,
                    "name": "reported",
                    "type": "address"
                },
                {
                    "indexed": true,
                    "name": "malicious",
                    "type": "bool"
                }
            ],
            "name": "Report",
            "type": "event"
        },
        {
            "anonymous": false,
            "inputs": [
                {
                    "indexed": false,
                    "name": "newNominiee",
                    "type": "address"
                },
                {
                    "indexed": false,
                    "name": "nomindatedBy",
                    "type": "address"
                }
            ],
            "name": "NewValidatorNormiated",
            "type": "event"
        },
        {
            "anonymous": false,
            "inputs": [
                {
                    "indexed": false,
                    "name": "newValidatorAddress",
                    "type": "address"
                },
                {
                    "indexed": false,
                    "name": "name",
                    "type": "string"
                },
                {
                    "indexed": false,
                    "name": "socialProfile",
                    "type": "string"
                }
            ],
            "name": "NewValidatorJoined",
            "type": "event"
        },
        {
            "anonymous": false,
            "inputs": [
                {
                    "indexed": false,
                    "name": "newValidatorAddress",
                    "type": "address"
                }
            ],
            "name": "ValidatorRemoved",
            "type": "event"
        },
        {
            "constant": false,
            "inputs": [
                {
                    "name": "_validatorAddress",
                    "type": "address"
                },
                {
                    "name": "_name",
                    "type": "string"
                },
                {
                    "name": "_publicUrl",
                    "type": "string"
                }
            ],
            "name": "nominateValidator",
            "outputs": [
                {
                    "name": "",
                    "type": "bool"
                }
            ],
            "payable": false,
            "stateMutability": "nonpayable",
            "type": "function"
        },
        {
            "constant": false,
            "inputs": [
                {
                    "name": "_validatorAddress",
                    "type": "address"
                }
            ],
            "name": "removeValidator",
            "outputs": [
                {
                    "name": "",
                    "type": "bool"
                }
            ],
            "payable": false,
            "stateMutability": "nonpayable",
            "type": "function"
        },
        {
            "constant": false,
            "inputs": [
                {
                    "name": "_validatorAddress",
                    "type": "address"
                }
            ],
            "name": "voteForValidator",
            "outputs": [
                {
                    "name": "",
                    "type": "bool"
                }
            ],
            "payable": false,
            "stateMutability": "nonpayable",
            "type": "function"
        },
        {
            "constant": false,
            "inputs": [
                {
                    "name": "_validator",
                    "type": "address"
                },
                {
                    "name": "_blockNumber",
                    "type": "uint256"
                },
                {
                    "name": "_proof",
                    "type": "bytes"
                }
            ],
            "name": "reportMalicious",
            "outputs": [],
            "payable": false,
            "stateMutability": "nonpayable",
            "type": "function"
        },
        {
            "constant": false,
            "inputs": [
                {
                    "name": "_validator",
                    "type": "address"
                },
                {
                    "name": "_blockNumber",
                    "type": "uint256"
                }
            ],
            "name": "reportBenign",
            "outputs": [],
            "payable": false,
            "stateMutability": "nonpayable",
            "type": "function"
        },
        {
            "constant": false,
            "inputs": [],
            "name": "finalizeChange",
            "outputs": [],
            "payable": false,
            "stateMutability": "nonpayable",
            "type": "function"
        },
        {
            "constant": true,
            "inputs": [],
            "name": "getValidators",
            "outputs": [
                {
                    "name": "",
                    "type": "address[]"
                }
            ],
            "payable": false,
            "stateMutability": "view",
            "type": "function"
        },
        {
            "constant": true,
            "inputs": [
                {
                    "name": "_addressToCheck",
                    "type": "address"
                }
            ],
            "name": "isAddressAnValidator",
            "outputs": [
                {
                    "name": "",
                    "type": "bool"
                }
            ],
            "payable": false,
            "stateMutability": "view",
            "type": "function"
        }
    ],
    "bytecode": "0x60806040523480156200001157600080fd5b506001600460003373ffffffffffffffffffffffffffffffffffffffff1673ffffffffffffffffffffffffffffffffffffffff16815260200190815260200160002060006101000a81548160ff02191690831515021790555060405180608001604052806040518060400160405280600781526020017f7368756268616d0000000000000000000000000000000000000000000000000081525081526020016040518060400160405280600e81526020017f7777772e676f6f676c652e636f6d000000000000000000000000000000000000815250815260200160011515815260200160008152506000803373ffffffffffffffffffffffffffffffffffffffff1673ffffffffffffffffffffffffffffffffffffffff16815260200190815260200160002060008201518160000190805190602001906200015592919062000213565b5060208201518160010190805190602001906200017492919062000213565b5060408201518160020160006101000a81548160ff0219169083151502179055506060820151816003015590505060013390806001815401808255809150509060018203906000526020600020016000909192909190916101000a81548173ffffffffffffffffffffffffffffffffffffffff021916908373ffffffffffffffffffffffffffffffffffffffff160217905550600281905550620002c2565b828054600181600116156101000203166002900490600052602060002090601f016020900481019282601f106200025657805160ff191683800117855562000287565b8280016001018555821562000287579182015b828111156200028657825182559160200191906001019062000269565b5b5090506200029691906200029a565b5090565b620002bf91905b80821115620002bb576000816000905550600101620002a1565b5090565b90565b6116c380620002d26000396000f3fe608060405234801561001057600080fd5b506004361061009e5760003560e01c8063b7ab4db511610066578063b7ab4db5146101f1578063ba6276ca14610250578063c476dd40146103da578063d69f13bb1461047d578063f288f589146104cb5761009e565b80630f43a677146100a357806314f6991f146100c157806335aa2e441461011d57806340a141ff1461018b57806375286211146101e7575b600080fd5b6100ab610527565b6040518082815260200191505060405180910390f35b610103600480360360208110156100d757600080fd5b81019080803573ffffffffffffffffffffffffffffffffffffffff16906020019092919050505061052d565b604051808215151515815260200191505060405180910390f35b6101496004803603602081101561013357600080fd5b8101908080359060200190929190505050610799565b604051808273ffffffffffffffffffffffffffffffffffffffff1673ffffffffffffffffffffffffffffffffffffffff16815260200191505060405180910390f35b6101cd600480360360208110156101a157600080fd5b81019080803573ffffffffffffffffffffffffffffffffffffffff1690602001909291905050506107d5565b604051808215151515815260200191505060405180910390f35b6101ef610b0a565b005b6101f9610b0c565b6040518080602001828103825283818151815260200191508051906020019060200280838360005b8381101561023c578082015181840152602081019050610221565b505050509050019250505060405180910390f35b6103c06004803603606081101561026657600080fd5b81019080803573ffffffffffffffffffffffffffffffffffffffff169060200190929190803590602001906401000000008111156102a357600080fd5b8201836020820111156102b557600080fd5b803590602001918460018302840111640100000000831117156102d757600080fd5b91908080601f016020809104026020016040519081016040528093929190818152602001838380828437600081840152601f19601f8201169050808301925050505050505091929192908035906020019064010000000081111561033a57600080fd5b82018360208201111561034c57600080fd5b8035906020019184600183028401116401000000008311171561036e57600080fd5b91908080601f016020809104026020016040519081016040528093929190818152602001838380828437600081840152601f19601f820116905080830192505050505050509192919290505050610b9a565b604051808215151515815260200191505060405180910390f35b61047b600480360360608110156103f057600080fd5b81019080803573ffffffffffffffffffffffffffffffffffffffff169060200190929190803590602001909291908035906020019064010000000081111561043757600080fd5b82018360208201111561044957600080fd5b8035906020019184600183028401116401000000008311171561046b57600080fd5b9091929391929390505050610ec7565b005b6104c96004803603604081101561049357600080fd5b81019080803573ffffffffffffffffffffffffffffffffffffffff16906020019092919080359060200190929190505050610f2b565b005b61050d600480360360208110156104e157600080fd5b81019080803573ffffffffffffffffffffffffffffffffffffffff169060200190929190505050610f8d565b604051808215151515815260200191505060405180910390f35b60025481565b60008060003373ffffffffffffffffffffffffffffffffffffffff1673ffffffffffffffffffffffffffffffffffffffff16815260200190815260200160002060020160009054906101000a900460ff1661058757600080fd5b600360008373ffffffffffffffffffffffffffffffffffffffff1673ffffffffffffffffffffffffffffffffffffffff16815260200190815260200160002060020160020160009054906101000a900460ff1661062f576040517f08c379a00000000000000000000000000000000000000000000000000000000081526004018080602001828103825260218152602001806116776021913960400191505060405180910390fd5b6000600360008473ffffffffffffffffffffffffffffffffffffffff1673ffffffffffffffffffffffffffffffffffffffff16815260200190815260200160002090508060000160003373ffffffffffffffffffffffffffffffffffffffff1673ffffffffffffffffffffffffffffffffffffffff16815260200190815260200160002060009054906101000a900460ff1615610717576040517f08c379a000000000000000000000000000000000000000000000000000000000815260040180806020018281038252602881526020018061164f6028913960400191505060405180910390fd5b60018160000160003373ffffffffffffffffffffffffffffffffffffffff1673ffffffffffffffffffffffffffffffffffffffff16815260200190815260200160002060006101000a81548160ff021916908315150217905550806001016000815480929190600101919050555061078e83610ff6565b506001915050919050565b600181815481106107a657fe5b906000526020600020016000915054906101000a900473ffffffffffffffffffffffffffffffffffffffff1681565b6000600460003373ffffffffffffffffffffffffffffffffffffffff1673ffffffffffffffffffffffffffffffffffffffff16815260200190815260200160002060009054906101000a900460ff1661082d57600080fd5b6000808373ffffffffffffffffffffffffffffffffffffffff1673ffffffffffffffffffffffffffffffffffffffff16815260200190815260200160002060020160009054906101000a900460ff166108ee576040517f08c379a00000000000000000000000000000000000000000000000000000000081526004018080602001828103825260198152602001807f496e76616c69642056616c696461746f7220416464726573730000000000000081525060200191505060405180910390fd5b60008060008473ffffffffffffffffffffffffffffffffffffffff1673ffffffffffffffffffffffffffffffffffffffff168152602001908152602001600020600301549050600180805490501115610a5e5760006001808080549050038154811061095657fe5b9060005260206000200160009054906101000a900473ffffffffffffffffffffffffffffffffffffffff169050816000808373ffffffffffffffffffffffffffffffffffffffff1673ffffffffffffffffffffffffffffffffffffffff16815260200190815260200160002060030181905550600180808054905003815481106109dc57fe5b9060005260206000200160009054906101000a900473ffffffffffffffffffffffffffffffffffffffff1660018381548110610a1457fe5b9060005260206000200160006101000a81548173ffffffffffffffffffffffffffffffffffffffff021916908373ffffffffffffffffffffffffffffffffffffffff160217905550505b6000808473ffffffffffffffffffffffffffffffffffffffff1673ffffffffffffffffffffffffffffffffffffffff16815260200190815260200160002060008082016000610aad9190611484565b600182016000610abd9190611484565b6002820160006101000a81549060ff0219169055600382016000905550506001805480919060019003610af091906114cc565b506002600081548092919060019003919050555050919050565b565b60606001805480602002602001604051908101604052809291908181526020018280548015610b9057602002820191906000526020600020905b8160009054906101000a900473ffffffffffffffffffffffffffffffffffffffff1673ffffffffffffffffffffffffffffffffffffffff1681526020019060010190808311610b46575b5050505050905090565b60008060008573ffffffffffffffffffffffffffffffffffffffff1673ffffffffffffffffffffffffffffffffffffffff16815260200190815260200160002060020160009054906101000a900460ff1615610c5e576040517f08c379a000000000000000000000000000000000000000000000000000000000815260040180806020018281038252601e8152602001807f4164647265737320697320616c726561647920612076616c696461746f72000081525060200191505060405180910390fd5b600360008573ffffffffffffffffffffffffffffffffffffffff1673ffffffffffffffffffffffffffffffffffffffff16815260200190815260200160002060020160020160009054906101000a900460ff1615610d24576040517f08c379a000000000000000000000000000000000000000000000000000000000815260040180806020018281038252601d8152602001807f4164647265737320697320696e2070656e64696e67206164647265737300000081525060200191505060405180910390fd5b610d2c6114f8565b60405180608001604052808581526020018481526020016001151581526020016000815250905060405180604001604052806000815260200182815250600360008773ffffffffffffffffffffffffffffffffffffffff1673ffffffffffffffffffffffffffffffffffffffff168152602001908152602001600020600082015181600101556020820151816002016000820151816000019080519060200190610dd7929190611522565b506020820151816001019080519060200190610df4929190611522565b5060408201518160020160006101000a81548160ff0219169083151502179055506060820151816003015550509050507f8f648311397d2800c820022304d46988a4b7d50406c02e8ef5f34ccfc792221d3386604051808373ffffffffffffffffffffffffffffffffffffffff1673ffffffffffffffffffffffffffffffffffffffff1681526020018273ffffffffffffffffffffffffffffffffffffffff1673ffffffffffffffffffffffffffffffffffffffff1681526020019250505060405180910390a160019150509392505050565b600115158473ffffffffffffffffffffffffffffffffffffffff163373ffffffffffffffffffffffffffffffffffffffff167f32c78b6140c46745a46e88cd883707d70dbd2f06d13dd76fe5f499c01290da4f60405160405180910390a450505050565b600015158273ffffffffffffffffffffffffffffffffffffffff163373ffffffffffffffffffffffffffffffffffffffff167f32c78b6140c46745a46e88cd883707d70dbd2f06d13dd76fe5f499c01290da4f60405160405180910390a45050565b60008060008373ffffffffffffffffffffffffffffffffffffffff1673ffffffffffffffffffffffffffffffffffffffff16815260200190815260200160002060020160009054906101000a900460ff1615610fec5760019050610ff1565b600090505b919050565b600080600360008473ffffffffffffffffffffffffffffffffffffffff1673ffffffffffffffffffffffffffffffffffffffff16815260200190815260200160002090506000816001015490506001600280548161105057fe5b0401811061147857816002016000808673ffffffffffffffffffffffffffffffffffffffff1673ffffffffffffffffffffffffffffffffffffffff168152602001908152602001600020600082018160000190805460018160011615610100020316600290046110c19291906115a2565b50600182018160010190805460018160011615610100020316600290046110e99291906115a2565b506002820160009054906101000a900460ff168160020160006101000a81548160ff0219169083151502179055506003820154816003015590505060006001808690806001815401808255809150509060018203906000526020600020016000909192909190916101000a81548173ffffffffffffffffffffffffffffffffffffffff021916908373ffffffffffffffffffffffffffffffffffffffff160217905550039050806000808773ffffffffffffffffffffffffffffffffffffffff1673ffffffffffffffffffffffffffffffffffffffff16815260200190815260200160002060030181905550600360008673ffffffffffffffffffffffffffffffffffffffff1673ffffffffffffffffffffffffffffffffffffffff1681526020019081526020016000206000600182016000905560028201600080820160006112339190611484565b6001820160006112439190611484565b6002820160006101000a81549060ff02191690556003820160009055505050506002600081548092919060010191905055507fdc7ac6e7703a0e8db7bdc5fe61e0bf3e6c1ff7b2c1705a34acf77692cbbd60e3856000808873ffffffffffffffffffffffffffffffffffffffff1673ffffffffffffffffffffffffffffffffffffffff1681526020019081526020016000206000016000808973ffffffffffffffffffffffffffffffffffffffff1673ffffffffffffffffffffffffffffffffffffffff168152602001908152602001600020600101604051808473ffffffffffffffffffffffffffffffffffffffff1673ffffffffffffffffffffffffffffffffffffffff16815260200180602001806020018381038352858181546001816001161561010002031660029004815260200191508054600181600116156101000203166002900480156113d85780601f106113ad576101008083540402835291602001916113d8565b820191906000526020600020905b8154815290600101906020018083116113bb57829003601f168201915b505083810382528481815460018160011615610100020316600290048152602001915080546001816001161561010002031660029004801561145b5780601f106114305761010080835404028352916020019161145b565b820191906000526020600020905b81548152906001019060200180831161143e57829003601f168201915b50509550505050505060405180910390a16001935050505061147f565b6000925050505b919050565b50805460018160011615610100020316600290046000825580601f106114aa57506114c9565b601f0160209004906000526020600020908101906114c89190611629565b5b50565b8154818355818111156114f3578183600052602060002091820191016114f29190611629565b5b505050565b60405180608001604052806060815260200160608152602001600015158152602001600081525090565b828054600181600116156101000203166002900490600052602060002090601f016020900481019282601f1061156357805160ff1916838001178555611591565b82800160010185558215611591579182015b82811115611590578251825591602001919060010190611575565b5b50905061159e9190611629565b5090565b828054600181600116156101000203166002900490600052602060002090601f016020900481019282601f106115db5780548555611618565b8280016001018555821561161857600052602060002091601f016020900482015b828111156116175782548255916001019190600101906115fc565b5b5090506116259190611629565b5090565b61164b91905b8082111561164757600081600090555060010161162f565b5090565b9056fe596f75206861766520616c726561647920766f74656420666f72207468652063616e6469646174654164647265737320697320696e206e6f742070656e64696e672061646472657373a165627a7a72305820ace26e009484c73ff0f95490a29d1353243092b8d11f196106649f18ec309a5b0029",
    "source": "pragma solidity ^ 0.5.0;\nimport \"./ValidatorSet.sol\";\n// Some addresses are admins.\n// Admin can add or remove another admin or a validator.\ncontract Validators is ValidatorSet{\n\n    /*\n        Structure to store the Meta data for the pending validator\n        :Parm index: index of the address of the new validator in the list of pending validators\n        :Param voteCount: total vote count for the validator\n    */\n    struct CandidateDetails{\n        string name;\n        string socialProfile;\n        bool exists;\n        uint index;\n    }\n\n    struct ValidatorMeta{\n        mapping(address => bool) votersAddress;\n        uint voteCount;\n        CandidateDetails details;\n    }\n\n\n    mapping(address => CandidateDetails) isValidator;\n    address[] public validators;\n    uint public validatorCount;\n    mapping(address => ValidatorMeta) isPendingValidator;\n    mapping(address => bool) isAdmin;\n\n    constructor() public{\n        isAdmin[msg.sender] = true;\n        isValidator[msg.sender] = CandidateDetails(\"shubham\", \"www.google.com\", true, 0);\n        validatorCount = validators.push(msg.sender);\n    }\n\n    /*\n        Function to nominate a new Validator to the list\n        :Param address validatorAddress: address the candidate\n        :Param string name: name of the validator\n        :Param string publicUrl: social url of the validator\n        :Retruns bool: true if successfully nomiated\n    */\n    function nominateValidator(address _validatorAddress, string memory _name, string memory _publicUrl) public returns(bool){\n        require(!isValidator[_validatorAddress].exists, 'Address is already a validator');\n        require(!isPendingValidator[_validatorAddress].details.exists, 'Address is in pending address');\n\n        // Pushing into the list and inserting into mapping for future reference\n        CandidateDetails memory details = CandidateDetails(_name, _publicUrl, true, 0);\n        isPendingValidator[_validatorAddress] = ValidatorMeta(0, details);\n        emit NewValidatorNormiated(msg.sender, _validatorAddress);\n        return true;\n    }\n\n    /*\n        Function to remove a validator by admin only\n        :Parma address validatorAddress: address of the validator\n    */\n\n    function removeValidator(address _validatorAddress) public adminOnly returns(bool){\n        require(isValidator[_validatorAddress].exists,\"Invalid Validator Address\");\n        uint index = isValidator[_validatorAddress].index;\n        if(validators.length > 1){\n            address lastAddress = validators[validators.length-1];\n            isValidator[lastAddress].index = index;\n            validators[index] =validators[validators.length-1];\n\n        }\n        delete isValidator[_validatorAddress];\n        validators.length--;\n        validatorCount--;\n    }\n\n    /*\n        Function to vote for candidate\n        :Param address validatorAddress: address of the validtor\n        :Returns bool: true if successfully voted\n    */\n    function voteForValidator(address _validatorAddress) public validatorOnly returns(bool){\n        require(isPendingValidator[_validatorAddress].details.exists, 'Address is in not pending address');\n        ValidatorMeta storage currentCandidate = isPendingValidator[_validatorAddress];\n        if (currentCandidate.votersAddress[msg.sender]) revert(\"You have already voted for the candidate\");\n        currentCandidate.votersAddress[msg.sender] = true;\n        currentCandidate.voteCount++;\n        checkForPromotion(_validatorAddress);\n        return true;\n    }\n\n    /*\n        Function to promote a candidate if he has more then 50% votes\n        :Param address candidateAddress: address of the candidate\n        :Returns bool: true if promoted false otherwise\n    */\n    function checkForPromotion(address _candidateAddress) private returns(bool){\n\n        ValidatorMeta storage currentCandidate = isPendingValidator[_candidateAddress];\n        uint totalVotes = currentCandidate.voteCount;\n\n        if (totalVotes >= validatorCount / 2 + 1) {\n            isValidator[_candidateAddress] = currentCandidate.details;\n            uint index = validators.push(_candidateAddress)-1;\n            isValidator[_candidateAddress].index = index;\n            delete isPendingValidator[_candidateAddress];\n            validatorCount++;\n            emit NewValidatorJoined(_candidateAddress, isValidator[_candidateAddress].name, isValidator[_candidateAddress].socialProfile);\n            return true;\n        }\n        return false;\n    }\n\n\n\n    function reportMalicious(address _validator, uint256 _blockNumber, bytes calldata _proof)  external {\n        emit Report(msg.sender, _validator, true);\n    }\n\n    // Report that a validator has misbehaved in a benign way.\n    function reportBenign(address _validator, uint256 _blockNumber)  external{\n        emit Report(msg.sender, _validator, false);\n    }\n\n    function finalizeChange() external{\n\n    }\n    function getValidators() external view returns(address[] memory){\n        return validators;\n    }\n\n    /*\n        Function to check if an address is a validator\n        :Param address addressToCheck: address of the user to check if he/she is a validator or not\n        :Returns bool: true if a validator false otherwise\n    */\n    function isAddressAnValidator(address _addressToCheck) public view returns(bool){\n        if (isValidator[_addressToCheck].exists) return true;\n        return false;\n    }\n\n    // Modifiers\n    modifier validatorOnly(){\n        if (!isValidator[msg.sender].exists) revert();\n        _;\n    }\n\n    modifier adminOnly(){\n        if (!isAdmin[msg.sender]) revert();\n        _;\n    }\n\n}\n",
    "sourcePath": "/home/impadmin/Desktop/Blockchain/POA-Ethereum-Blochain-/validatorapp/contracts/Validators.sol",
    "compiler": {
        "name": "solc",
        "version": "0.5.8+commit.23d335f2.Emscripten.clang"
    },
    "schemaVersion": "3.0.11",
    "updatedAt": "2019-07-04T07:52:31.436Z",
    "devdoc": {
        "methods": {}
    },
    "userdoc": {
        "methods": {}
    }
}