{
  "contractName": "Validators",
  "abi": [
    {
      "constant": true,
      "inputs": [],
      "name": "validatorCount",
      "outputs": [
        {
          "name": "",
          "type": "uint256"
        }
      ],
      "payable": false,
      "stateMutability": "view",
      "type": "function"
    },
    {
      "constant": true,
      "inputs": [
        {
          "name": "",
          "type": "uint256"
        }
      ],
      "name": "pendingValidators",
      "outputs": [
        {
          "name": "",
          "type": "address"
        }
      ],
      "payable": false,
      "stateMutability": "view",
      "type": "function"
    },
    {
      "constant": true,
      "inputs": [
        {
          "name": "",
          "type": "uint256"
        }
      ],
      "name": "validators",
      "outputs": [
        {
          "name": "",
          "type": "address"
        }
      ],
      "payable": false,
      "stateMutability": "view",
      "type": "function"
    },
    {
      "inputs": [],
      "payable": false,
      "stateMutability": "nonpayable",
      "type": "constructor"
    },
    {
      "anonymous": false,
      "inputs": [
        {
          "indexed": true,
          "name": "_parentHash",
          "type": "bytes32"
        },
        {
          "indexed": false,
          "name": "_newSet",
          "type": "address[]"
        }
      ],
      "name": "InitiateChange",
      "type": "event"
    },
    {
      "anonymous": false,
      "inputs": [
        {
          "indexed": true,
          "name": "reporter",
          "type": "address"
        },
        {
          "indexed": true,
          "name": "reported",
          "type": "address"
        },
        {
          "indexed": true,
          "name": "malicious",
          "type": "bool"
        }
      ],
      "name": "Report",
      "type": "event"
    },
    {
      "anonymous": false,
      "inputs": [
        {
          "indexed": false,
          "name": "newNominiee",
          "type": "address"
        },
        {
          "indexed": false,
          "name": "nomindatedBy",
          "type": "address"
        }
      ],
      "name": "NewValidatorNormiated",
      "type": "event"
    },
    {
      "anonymous": false,
      "inputs": [
        {
          "indexed": false,
          "name": "newValidatorAddress",
          "type": "address"
        },
        {
          "indexed": false,
          "name": "name",
          "type": "string"
        },
        {
          "indexed": false,
          "name": "socialProfile",
          "type": "string"
        }
      ],
      "name": "NewValidatorJoined",
      "type": "event"
    },
    {
      "anonymous": false,
      "inputs": [
        {
          "indexed": false,
          "name": "newValidatorAddress",
          "type": "address"
        }
      ],
      "name": "ValidatorRemoved",
      "type": "event"
    },
    {
      "constant": false,
      "inputs": [
        {
          "name": "_validatorAddress",
          "type": "address"
        },
        {
          "name": "_name",
          "type": "string"
        },
        {
          "name": "_publicUrl",
          "type": "string"
        }
      ],
      "name": "nominateValidator",
      "outputs": [
        {
          "name": "",
          "type": "bool"
        }
      ],
      "payable": false,
      "stateMutability": "nonpayable",
      "type": "function"
    },
    {
      "constant": false,
      "inputs": [
        {
          "name": "_validatorAddress",
          "type": "address"
        }
      ],
      "name": "removeValidator",
      "outputs": [
        {
          "name": "",
          "type": "bool"
        }
      ],
      "payable": false,
      "stateMutability": "nonpayable",
      "type": "function"
    },
    {
      "constant": false,
      "inputs": [
        {
          "name": "_validatorAddress",
          "type": "address"
        }
      ],
      "name": "voteForValidator",
      "outputs": [
        {
          "name": "",
          "type": "bool"
        }
      ],
      "payable": false,
      "stateMutability": "nonpayable",
      "type": "function"
    },
    {
      "constant": false,
      "inputs": [
        {
          "name": "_validator",
          "type": "address"
        },
        {
          "name": "_blockNumber",
          "type": "uint256"
        },
        {
          "name": "_proof",
          "type": "bytes"
        }
      ],
      "name": "reportMalicious",
      "outputs": [],
      "payable": false,
      "stateMutability": "nonpayable",
      "type": "function"
    },
    {
      "constant": false,
      "inputs": [
        {
          "name": "_validator",
          "type": "address"
        },
        {
          "name": "_blockNumber",
          "type": "uint256"
        }
      ],
      "name": "reportBenign",
      "outputs": [],
      "payable": false,
      "stateMutability": "nonpayable",
      "type": "function"
    },
    {
      "constant": false,
      "inputs": [],
      "name": "finalizeChange",
      "outputs": [],
      "payable": false,
      "stateMutability": "nonpayable",
      "type": "function"
    },
    {
      "constant": true,
      "inputs": [],
      "name": "getValidators",
      "outputs": [
        {
          "name": "",
          "type": "address[]"
        }
      ],
      "payable": false,
      "stateMutability": "view",
      "type": "function"
    },
    {
      "constant": true,
      "inputs": [],
      "name": "getPendingValidators",
      "outputs": [
        {
          "name": "",
          "type": "address[]"
        }
      ],
      "payable": false,
      "stateMutability": "view",
      "type": "function"
    },
    {
      "constant": true,
      "inputs": [
        {
          "name": "_address",
          "type": "address"
        }
      ],
      "name": "getValidatorDetails",
      "outputs": [
        {
          "name": "",
          "type": "string"
        },
        {
          "name": "",
          "type": "string"
        }
      ],
      "payable": false,
      "stateMutability": "view",
      "type": "function"
    },
    {
      "constant": true,
      "inputs": [
        {
          "name": "_addressToCheck",
          "type": "address"
        }
      ],
      "name": "isAddressAnValidator",
      "outputs": [
        {
          "name": "",
          "type": "bool"
        }
      ],
      "payable": false,
      "stateMutability": "view",
      "type": "function"
    },
    {
      "constant": true,
      "inputs": [
        {
          "name": "_addressToCheck",
          "type": "address"
        }
      ],
      "name": "isAddressInPendingValidators",
      "outputs": [
        {
          "name": "",
          "type": "bool"
        }
      ],
      "payable": false,
      "stateMutability": "view",
      "type": "function"
    },
    {
      "constant": true,
      "inputs": [
        {
          "name": "_address",
          "type": "address"
        }
      ],
      "name": "getVoteCountFor",
      "outputs": [
        {
          "name": "",
          "type": "uint256"
        }
      ],
      "payable": false,
      "stateMutability": "view",
      "type": "function"
    }
  ],
  "bytecode": "0x60806040523480156200001157600080fd5b506001600560003373ffffffffffffffffffffffffffffffffffffffff1673ffffffffffffffffffffffffffffffffffffffff16815260200190815260200160002060006101000a81548160ff02191690831515021790555060405180608001604052806040518060400160405280600781526020017f7368756268616d0000000000000000000000000000000000000000000000000081525081526020016040518060400160405280600e81526020017f7777772e676f6f676c652e636f6d000000000000000000000000000000000000815250815260200160011515815260200160008152506000803373ffffffffffffffffffffffffffffffffffffffff1673ffffffffffffffffffffffffffffffffffffffff16815260200190815260200160002060008201518160000190805190602001906200015592919062000213565b5060208201518160010190805190602001906200017492919062000213565b5060408201518160020160006101000a81548160ff0219169083151502179055506060820151816003015590505060013390806001815401808255809150509060018203906000526020600020016000909192909190916101000a81548173ffffffffffffffffffffffffffffffffffffffff021916908373ffffffffffffffffffffffffffffffffffffffff160217905550600381905550620002c2565b828054600181600116156101000203166002900490600052602060002090601f016020900481019282601f106200025657805160ff191683800117855562000287565b8280016001018555821562000287579182015b828111156200028657825182559160200191906001019062000269565b5b5090506200029691906200029a565b5090565b620002bf91905b80821115620002bb576000816000905550600101620002a1565b5090565b90565b6120dc80620002d26000396000f3fe608060405234801561001057600080fd5b50600436106100f55760003560e01c806385ee2c9911610097578063c476dd4011610066578063c476dd401461067c578063d69f13bb1461071f578063eebc7a391461076d578063f288f589146107cc576100f5565b806385ee2c9914610312578063b5609f391461036a578063b7ab4db514610493578063ba6276ca146104f2576100f5565b806335aa2e44116100d357806335aa2e44146101e257806340a141ff146102505780636647b7e9146102ac5780637528621114610308576100f5565b80630f43a677146100fa57806314f6991f1461011857806328569e1f14610174575b600080fd5b610102610828565b6040518082815260200191505060405180910390f35b61015a6004803603602081101561012e57600080fd5b81019080803573ffffffffffffffffffffffffffffffffffffffff16906020019092919050505061082e565b604051808215151515815260200191505060405180910390f35b6101a06004803603602081101561018a57600080fd5b8101908080359060200190929190505050610b10565b604051808273ffffffffffffffffffffffffffffffffffffffff1673ffffffffffffffffffffffffffffffffffffffff16815260200191505060405180910390f35b61020e600480360360208110156101f857600080fd5b8101908080359060200190929190505050610b4c565b604051808273ffffffffffffffffffffffffffffffffffffffff1673ffffffffffffffffffffffffffffffffffffffff16815260200191505060405180910390f35b6102926004803603602081101561026657600080fd5b81019080803573ffffffffffffffffffffffffffffffffffffffff169060200190929190505050610b88565b604051808215151515815260200191505060405180910390f35b6102ee600480360360208110156102c257600080fd5b81019080803573ffffffffffffffffffffffffffffffffffffffff169060200190929190505050610fe0565b604051808215151515815260200191505060405180910390f35b61031061104d565b005b6103546004803603602081101561032857600080fd5b81019080803573ffffffffffffffffffffffffffffffffffffffff16906020019092919050505061104f565b6040518082815260200191505060405180910390f35b6103ac6004803603602081101561038057600080fd5b81019080803573ffffffffffffffffffffffffffffffffffffffff16906020019092919050505061109b565b604051808060200180602001838103835285818151815260200191508051906020019080838360005b838110156103f05780820151818401526020810190506103d5565b50505050905090810190601f16801561041d5780820380516001836020036101000a031916815260200191505b50838103825284818151815260200191508051906020019080838360005b8381101561045657808201518184015260208101905061043b565b50505050905090810190601f1680156104835780820380516001836020036101000a031916815260200191505b5094505050505060405180910390f35b61049b611261565b6040518080602001828103825283818151815260200191508051906020019060200280838360005b838110156104de5780820151818401526020810190506104c3565b505050509050019250505060405180910390f35b6106626004803603606081101561050857600080fd5b81019080803573ffffffffffffffffffffffffffffffffffffffff1690602001909291908035906020019064010000000081111561054557600080fd5b82018360208201111561055757600080fd5b8035906020019184600183028401116401000000008311171561057957600080fd5b91908080601f016020809104026020016040519081016040528093929190818152602001838380828437600081840152601f19601f820116905080830192505050505050509192919290803590602001906401000000008111156105dc57600080fd5b8201836020820111156105ee57600080fd5b8035906020019184600183028401116401000000008311171561061057600080fd5b91908080601f016020809104026020016040519081016040528093929190818152602001838380828437600081840152601f19601f8201169050808301925050505050505091929192905050506112ef565b604051808215151515815260200191505060405180910390f35b61071d6004803603606081101561069257600080fd5b81019080803573ffffffffffffffffffffffffffffffffffffffff16906020019092919080359060200190929190803590602001906401000000008111156106d957600080fd5b8201836020820111156106eb57600080fd5b8035906020019184600183028401116401000000008311171561070d57600080fd5b9091929391929390505050611682565b005b61076b6004803603604081101561073557600080fd5b81019080803573ffffffffffffffffffffffffffffffffffffffff169060200190929190803590602001909291905050506116e6565b005b610775611748565b6040518080602001828103825283818151815260200191508051906020019060200280838360005b838110156107b857808201518184015260208101905061079d565b505050509050019250505060405180910390f35b61080e600480360360208110156107e257600080fd5b81019080803573ffffffffffffffffffffffffffffffffffffffff1690602001909291905050506117d6565b604051808215151515815260200191505060405180910390f35b60035481565b60008060003373ffffffffffffffffffffffffffffffffffffffff1673ffffffffffffffffffffffffffffffffffffffff16815260200190815260200160002060020160009054906101000a900460ff1661088857600080fd5b600460008373ffffffffffffffffffffffffffffffffffffffff1673ffffffffffffffffffffffffffffffffffffffff16815260200190815260200160002060020160020160009054906101000a900460ff16610930576040517f08c379a00000000000000000000000000000000000000000000000000000000081526004018080602001828103825260218152602001806120906021913960400191505060405180910390fd5b600460008373ffffffffffffffffffffffffffffffffffffffff1673ffffffffffffffffffffffffffffffffffffffff16815260200190815260200160002060000160003373ffffffffffffffffffffffffffffffffffffffff1673ffffffffffffffffffffffffffffffffffffffff16815260200190815260200160002060009054906101000a900460ff1615610a13576040517f08c379a00000000000000000000000000000000000000000000000000000000081526004018080602001828103825260288152602001806120686028913960400191505060405180910390fd5b6001600460008473ffffffffffffffffffffffffffffffffffffffff1673ffffffffffffffffffffffffffffffffffffffff16815260200190815260200160002060000160003373ffffffffffffffffffffffffffffffffffffffff1673ffffffffffffffffffffffffffffffffffffffff16815260200190815260200160002060006101000a81548160ff021916908315150217905550600460008373ffffffffffffffffffffffffffffffffffffffff1673ffffffffffffffffffffffffffffffffffffffff16815260200190815260200160002060010160008154809291906001019190505550610b068261183f565b5060019050919050565b60028181548110610b1d57fe5b906000526020600020016000915054906101000a900473ffffffffffffffffffffffffffffffffffffffff1681565b60018181548110610b5957fe5b906000526020600020016000915054906101000a900473ffffffffffffffffffffffffffffffffffffffff1681565b6000600560003373ffffffffffffffffffffffffffffffffffffffff1673ffffffffffffffffffffffffffffffffffffffff16815260200190815260200160002060009054906101000a900460ff16610be057600080fd5b6000808373ffffffffffffffffffffffffffffffffffffffff1673ffffffffffffffffffffffffffffffffffffffff16815260200190815260200160002060020160009054906101000a900460ff16610ca1576040517f08c379a00000000000000000000000000000000000000000000000000000000081526004018080602001828103825260198152602001807f496e76616c69642056616c696461746f7220416464726573730000000000000081525060200191505060405180910390fd5b600560008373ffffffffffffffffffffffffffffffffffffffff1673ffffffffffffffffffffffffffffffffffffffff16815260200190815260200160002060009054906101000a900460ff1615610d61576040517f08c379a000000000000000000000000000000000000000000000000000000000815260040180806020018281038252601e8152602001807f43616e6e6f742072656d6f76652061646d696e2076616c696461746f7273000081525060200191505060405180910390fd5b60008060008473ffffffffffffffffffffffffffffffffffffffff1673ffffffffffffffffffffffffffffffffffffffff168152602001908152602001600020600301549050600180805490501115610ed157600060018080805490500381548110610dc957fe5b9060005260206000200160009054906101000a900473ffffffffffffffffffffffffffffffffffffffff169050816000808373ffffffffffffffffffffffffffffffffffffffff1673ffffffffffffffffffffffffffffffffffffffff1681526020019081526020016000206003018190555060018080805490500381548110610e4f57fe5b9060005260206000200160009054906101000a900473ffffffffffffffffffffffffffffffffffffffff1660018381548110610e8757fe5b9060005260206000200160006101000a81548173ffffffffffffffffffffffffffffffffffffffff021916908373ffffffffffffffffffffffffffffffffffffffff160217905550505b6000808473ffffffffffffffffffffffffffffffffffffffff1673ffffffffffffffffffffffffffffffffffffffff16815260200190815260200160002060008082016000610f209190611e9d565b600182016000610f309190611e9d565b6002820160006101000a81549060ff0219169055600382016000905550506001805480919060019003610f639190611ee5565b50600360008154809291906001900391905055507fe1434e25d6611e0db941968fdc97811c982ac1602e951637d206f5fdda9dd8f183604051808273ffffffffffffffffffffffffffffffffffffffff1673ffffffffffffffffffffffffffffffffffffffff16815260200191505060405180910390a150919050565b6000600460008373ffffffffffffffffffffffffffffffffffffffff1673ffffffffffffffffffffffffffffffffffffffff16815260200190815260200160002060020160020160009054906101000a900460ff16156110435760019050611048565b600090505b919050565b565b6000600460008373ffffffffffffffffffffffffffffffffffffffff1673ffffffffffffffffffffffffffffffffffffffff168152602001908152602001600020600101549050919050565b6060806000808473ffffffffffffffffffffffffffffffffffffffff1673ffffffffffffffffffffffffffffffffffffffff1681526020019081526020016000206000016000808573ffffffffffffffffffffffffffffffffffffffff1673ffffffffffffffffffffffffffffffffffffffff168152602001908152602001600020600101818054600181600116156101000203166002900480601f0160208091040260200160405190810160405280929190818152602001828054600181600116156101000203166002900480156111b55780601f1061118a576101008083540402835291602001916111b5565b820191906000526020600020905b81548152906001019060200180831161119857829003601f168201915b50505050509150808054600181600116156101000203166002900480601f0160208091040260200160405190810160405280929190818152602001828054600181600116156101000203166002900480156112515780601f1061122657610100808354040283529160200191611251565b820191906000526020600020905b81548152906001019060200180831161123457829003601f168201915b5050505050905091509150915091565b606060018054806020026020016040519081016040528092919081815260200182805480156112e557602002820191906000526020600020905b8160009054906101000a900473ffffffffffffffffffffffffffffffffffffffff1673ffffffffffffffffffffffffffffffffffffffff168152602001906001019080831161129b575b5050505050905090565b60008060008573ffffffffffffffffffffffffffffffffffffffff1673ffffffffffffffffffffffffffffffffffffffff16815260200190815260200160002060020160009054906101000a900460ff16156113b3576040517f08c379a000000000000000000000000000000000000000000000000000000000815260040180806020018281038252601e8152602001807f4164647265737320697320616c726561647920612076616c696461746f72000081525060200191505060405180910390fd5b600460008573ffffffffffffffffffffffffffffffffffffffff1673ffffffffffffffffffffffffffffffffffffffff16815260200190815260200160002060020160020160009054906101000a900460ff1615611479576040517f08c379a000000000000000000000000000000000000000000000000000000000815260040180806020018281038252601d8152602001807f4164647265737320697320696e2070656e64696e67206164647265737300000081525060200191505060405180910390fd5b611481611f11565b6040518060800160405280858152602001848152602001600115158152602001600160028890806001815401808255809150509060018203906000526020600020016000909192909190916101000a81548173ffffffffffffffffffffffffffffffffffffffff021916908373ffffffffffffffffffffffffffffffffffffffff16021790555003815250905060405180604001604052806000815260200182815250600460008773ffffffffffffffffffffffffffffffffffffffff1673ffffffffffffffffffffffffffffffffffffffff168152602001908152602001600020600082015181600101556020820151816002016000820151816000019080519060200190611592929190611f3b565b5060208201518160010190805190602001906115af929190611f3b565b5060408201518160020160006101000a81548160ff0219169083151502179055506060820151816003015550509050507f8f648311397d2800c820022304d46988a4b7d50406c02e8ef5f34ccfc792221d3386604051808373ffffffffffffffffffffffffffffffffffffffff1673ffffffffffffffffffffffffffffffffffffffff1681526020018273ffffffffffffffffffffffffffffffffffffffff1673ffffffffffffffffffffffffffffffffffffffff1681526020019250505060405180910390a160019150509392505050565b600115158473ffffffffffffffffffffffffffffffffffffffff163373ffffffffffffffffffffffffffffffffffffffff167f32c78b6140c46745a46e88cd883707d70dbd2f06d13dd76fe5f499c01290da4f60405160405180910390a450505050565b600015158273ffffffffffffffffffffffffffffffffffffffff163373ffffffffffffffffffffffffffffffffffffffff167f32c78b6140c46745a46e88cd883707d70dbd2f06d13dd76fe5f499c01290da4f60405160405180910390a45050565b606060028054806020026020016040519081016040528092919081815260200182805480156117cc57602002820191906000526020600020905b8160009054906101000a900473ffffffffffffffffffffffffffffffffffffffff1673ffffffffffffffffffffffffffffffffffffffff1681526020019060010190808311611782575b5050505050905090565b60008060008373ffffffffffffffffffffffffffffffffffffffff1673ffffffffffffffffffffffffffffffffffffffff16815260200190815260200160002060020160009054906101000a900460ff1615611835576001905061183a565b600090505b919050565b600080600460008473ffffffffffffffffffffffffffffffffffffffff1673ffffffffffffffffffffffffffffffffffffffff168152602001908152602001600020600101549050600160026003548161189557fe5b04018110611e9257600460008473ffffffffffffffffffffffffffffffffffffffff1673ffffffffffffffffffffffffffffffffffffffff1681526020019081526020016000206002016000808573ffffffffffffffffffffffffffffffffffffffff1673ffffffffffffffffffffffffffffffffffffffff16815260200190815260200160002060008201816000019080546001816001161561010002031660029004611944929190611fbb565b506001820181600101908054600181600116156101000203166002900461196c929190611fbb565b506002820160009054906101000a900460ff168160020160006101000a81548160ff0219169083151502179055506003820154816003015590505060006001808590806001815401808255809150509060018203906000526020600020016000909192909190916101000a81548173ffffffffffffffffffffffffffffffffffffffff021916908373ffffffffffffffffffffffffffffffffffffffff16021790555003905060006001600280549050039050816000808773ffffffffffffffffffffffffffffffffffffffff1673ffffffffffffffffffffffffffffffffffffffff168152602001908152602001600020600301819055506001811115611b415760028181548110611a7b57fe5b9060005260206000200160009054906101000a900473ffffffffffffffffffffffffffffffffffffffff166002600460008873ffffffffffffffffffffffffffffffffffffffff1673ffffffffffffffffffffffffffffffffffffffff1681526020019081526020016000206002016003015481548110611af857fe5b9060005260206000200160006101000a81548173ffffffffffffffffffffffffffffffffffffffff021916908373ffffffffffffffffffffffffffffffffffffffff1602179055505b6002805480919060019003611b569190611ee5565b506000600460008773ffffffffffffffffffffffffffffffffffffffff1673ffffffffffffffffffffffffffffffffffffffff16815260200190815260200160002060000160003373ffffffffffffffffffffffffffffffffffffffff1673ffffffffffffffffffffffffffffffffffffffff16815260200190815260200160002060006101000a81548160ff021916908315150217905550600460008673ffffffffffffffffffffffffffffffffffffffff1673ffffffffffffffffffffffffffffffffffffffff168152602001908152602001600020600060018201600090556002820160008082016000611c4d9190611e9d565b600182016000611c5d9190611e9d565b6002820160006101000a81549060ff02191690556003820160009055505050506003600081548092919060010191905055507fdc7ac6e7703a0e8db7bdc5fe61e0bf3e6c1ff7b2c1705a34acf77692cbbd60e3856000808873ffffffffffffffffffffffffffffffffffffffff1673ffffffffffffffffffffffffffffffffffffffff1681526020019081526020016000206000016000808973ffffffffffffffffffffffffffffffffffffffff1673ffffffffffffffffffffffffffffffffffffffff168152602001908152602001600020600101604051808473ffffffffffffffffffffffffffffffffffffffff1673ffffffffffffffffffffffffffffffffffffffff1681526020018060200180602001838103835285818154600181600116156101000203166002900481526020019150805460018160011615610100020316600290048015611df25780601f10611dc757610100808354040283529160200191611df2565b820191906000526020600020905b815481529060010190602001808311611dd557829003601f168201915b5050838103825284818154600181600116156101000203166002900481526020019150805460018160011615610100020316600290048015611e755780601f10611e4a57610100808354040283529160200191611e75565b820191906000526020600020905b815481529060010190602001808311611e5857829003601f168201915b50509550505050505060405180910390a160019350505050611e98565b60009150505b919050565b50805460018160011615610100020316600290046000825580601f10611ec35750611ee2565b601f016020900490600052602060002090810190611ee19190612042565b5b50565b815481835581811115611f0c57818360005260206000209182019101611f0b9190612042565b5b505050565b60405180608001604052806060815260200160608152602001600015158152602001600081525090565b828054600181600116156101000203166002900490600052602060002090601f016020900481019282601f10611f7c57805160ff1916838001178555611faa565b82800160010185558215611faa579182015b82811115611fa9578251825591602001919060010190611f8e565b5b509050611fb79190612042565b5090565b828054600181600116156101000203166002900490600052602060002090601f016020900481019282601f10611ff45780548555612031565b8280016001018555821561203157600052602060002091601f016020900482015b82811115612030578254825591600101919060010190612015565b5b50905061203e9190612042565b5090565b61206491905b80821115612060576000816000905550600101612048565b5090565b9056fe596f75206861766520616c726561647920766f74656420666f72207468652063616e6469646174654164647265737320697320696e206e6f742070656e64696e672061646472657373a165627a7a723058203dce6932b56a091ead35fc58bb11410ed724332d64d8ff76cc959aa8bce65d6b0029",
  "source": "pragma solidity ^ 0.5.0;\nimport \"./ValidatorSet.sol\";\n// Some addresses are admins.\n// Admin can add or remove another admin or a validator.\ncontract Validators is ValidatorSet{\n\n    /*\n        Structure to store the Meta data for the pending validator\n        :Parm index: index of the address of the new validator in the list of pending validators\n        :Param voteCount: total vote count for the validator\n    */\n    struct CandidateDetails{\n        string name;\n        string socialProfile;\n        bool exists;\n        uint index;\n    }\n\n    struct ValidatorMeta{\n        mapping(address => bool) votersAddress;\n        uint voteCount;\n        CandidateDetails details;\n    }\n\n\n    mapping(address => CandidateDetails) isValidator;\n    address[] public validators;\n    address[] public pendingValidators;\n    uint public validatorCount;\n    mapping(address => ValidatorMeta) isPendingValidator;\n    mapping(address => bool) isAdmin;\n\n    constructor() public{\n        isAdmin[msg.sender] = true;\n        isValidator[msg.sender] = CandidateDetails(\"shubham\", \"www.google.com\", true, 0);\n        validatorCount = validators.push(msg.sender);\n    }\n\n    /*\n        Function to nominate a new Validator to the list\n        :Param address validatorAddress: address the candidate\n        :Param string name: name of the validator\n        :Param string publicUrl: social url of the validator\n        :Retruns bool: true if successfully nomiated\n    */\n\n    function nominateValidator(address _validatorAddress, string memory _name, string memory _publicUrl) public returns(bool){\n        require(!isValidator[_validatorAddress].exists, 'Address is already a validator');\n        require(!isPendingValidator[_validatorAddress].details.exists, 'Address is in pending address');\n\n        // Pushing into the list and inserting into mapping for future reference\n        CandidateDetails memory details = CandidateDetails(_name, _publicUrl, true, pendingValidators.push(_validatorAddress)-1);\n        isPendingValidator[_validatorAddress] = ValidatorMeta(0, details);\n        emit NewValidatorNormiated(msg.sender, _validatorAddress);\n        return true;\n    }\n\n    /*\n        Function to remove a validator by admin only\n        :Parma address validatorAddress: address of the validator\n    */\n\n    function removeValidator(address _validatorAddress) public adminOnly returns(bool){\n        require(isValidator[_validatorAddress].exists,\"Invalid Validator Address\");\n        require(!isAdmin[_validatorAddress],\"Cannot remove admin validators\");\n        \n        uint index = isValidator[_validatorAddress].index;\n        if(validators.length > 1){\n            address lastAddress = validators[validators.length-1];\n            isValidator[lastAddress].index = index;\n            validators[index] =validators[validators.length-1];\n\n        }\n        delete isValidator[_validatorAddress];\n        validators.length--;\n        validatorCount--;\n        emit ValidatorRemoved(_validatorAddress);\n    }\n\n    /*\n        Function to vote for candidate\n        :Param address validatorAddress: address of the validtor\n        :Returns bool: true if successfully voted\n    */\n    function voteForValidator(address _validatorAddress) public validatorOnly returns(bool){\n        require(isPendingValidator[_validatorAddress].details.exists, 'Address is in not pending address');\n        if (isPendingValidator[_validatorAddress].votersAddress[msg.sender]) revert(\"You have already voted for the candidate\");\n        isPendingValidator[_validatorAddress].votersAddress[msg.sender] = true;\n        isPendingValidator[_validatorAddress].voteCount++;\n        checkForPromotion(_validatorAddress);\n        return true;\n    }\n\n    /*\n        Function to promote a candidate if he has more then 50% votes\n        :Param address candidateAddress: address of the candidate\n        :Returns bool: true if promoted false otherwise\n    */\n    function checkForPromotion(address _candidateAddress) private returns(bool){\n\n        uint totalVotes = isPendingValidator[_candidateAddress].voteCount;\n\n        if (totalVotes >= validatorCount / 2 + 1) {\n            isValidator[_candidateAddress] = isPendingValidator[_candidateAddress].details;\n            uint index = validators.push(_candidateAddress)-1;\n            uint lastIndex = pendingValidators.length -1;\n            isValidator[_candidateAddress].index = index;\n            if(lastIndex > 1){\n                pendingValidators[isPendingValidator[_candidateAddress].details.index] = pendingValidators[lastIndex];\n                \n            }\n            pendingValidators.length--;\n            isPendingValidator[_candidateAddress].votersAddress[msg.sender] = false;\n            delete isPendingValidator[_candidateAddress];\n            validatorCount++;\n            emit NewValidatorJoined(_candidateAddress, isValidator[_candidateAddress].name, isValidator[_candidateAddress].socialProfile);\n            return true;\n        }\n        return false;\n    }\n\n\n\n    function reportMalicious(address _validator, uint256 _blockNumber, bytes calldata _proof)  external {\n        emit Report(msg.sender, _validator, true);\n    }\n\n    // Report that a validator has misbehaved in a benign way.\n    function reportBenign(address _validator, uint256 _blockNumber)  external{\n        emit Report(msg.sender, _validator, false);\n    }\n\n    function finalizeChange() external{\n\n    }\n\n    /*\n        Function to get the list of validators\n        :Returns list: of validators\n    */\n    function getValidators() external view returns(address[] memory){\n        return validators;\n    }\n    /*\n        Function to get the lsit of pendingValidators\n        :Returns list: of pending validators\n    */\n    function getPendingValidators() external view returns(address[] memory){\n        return pendingValidators;\n    }\n\n\n    /*\n        Function to get information about the validators\n        :Param address: address of validator\n        :Returns name, socialProfileURL:\n    */\n\n    function getValidatorDetails(address _address) external view returns(string memory,string memory){\n        return (isValidator[_address].name,isValidator[_address].socialProfile);\n    }\n\n    /*\n        Function to check if an address is a validator\n        :Param address addressToCheck: address of the user to check if he/she is a validator or not\n        :Returns bool: true if a validator false otherwise\n    */\n    function isAddressAnValidator(address _addressToCheck) public view returns(bool){\n        if (isValidator[_addressToCheck].exists) return true;\n        return false;\n    }\n    \n    /*\n        Function to check if an address is in pending validators\n        :Param address addressToCheck: address of the user to check if he/she is in pending validators\n        :Returns bool: true if a validator false otherwise\n    */\n    function isAddressInPendingValidators(address _addressToCheck) public view returns(bool){\n        if(isPendingValidator[_addressToCheck].details.exists) return true;\n        return false;\n    }\n\n    function getVoteCountFor(address _address) public view returns(uint){\n        return isPendingValidator[_address].voteCount;\n    }\n\n    // Modifiers\n    modifier validatorOnly(){\n        if (!isValidator[msg.sender].exists) revert();\n        _;\n    }\n\n    modifier adminOnly(){\n        if (!isAdmin[msg.sender]) revert();\n        _;\n    }\n\n}",
  "sourcePath": "/home/impadmin/Desktop/Blockchain/POA-Ethereum-Blochain-/validatorapp/contracts/Validators.sol",
  "compiler": {
    "name": "solc",
    "version": "0.5.8+commit.23d335f2.Emscripten.clang"
  },
  "schemaVersion": "3.0.11",
  "updatedAt": "2019-07-12T13:20:20.670Z",
  "devdoc": {
    "methods": {}
  },
  "userdoc": {
    "methods": {}
  }
}